{
  "_format": "hh3-artifact-1",
  "contractName": "Counter",
  "sourceName": "contracts/Counter.sol",
  "abi": [
    {
      "inputs": [],
      "stateMutability": "nonpayable",
      "type": "constructor"
    },
    {
      "inputs": [
        {
          "internalType": "address",
          "name": "target",
          "type": "address"
        }
      ],
      "name": "AddressEmptyCode",
      "type": "error"
    },
    {
      "inputs": [
        {
          "internalType": "address",
          "name": "implementation",
          "type": "address"
        }
      ],
      "name": "ERC1967InvalidImplementation",
      "type": "error"
    },
    {
      "inputs": [],
      "name": "ERC1967NonPayable",
      "type": "error"
    },
    {
      "inputs": [],
      "name": "FailedCall",
      "type": "error"
    },
    {
      "inputs": [],
      "name": "InvalidInitialization",
      "type": "error"
    },
    {
      "inputs": [],
      "name": "NotInitializing",
      "type": "error"
    },
    {
      "inputs": [
        {
          "internalType": "address",
          "name": "owner",
          "type": "address"
        }
      ],
      "name": "OwnableInvalidOwner",
      "type": "error"
    },
    {
      "inputs": [
        {
          "internalType": "address",
          "name": "account",
          "type": "address"
        }
      ],
      "name": "OwnableUnauthorizedAccount",
      "type": "error"
    },
    {
      "inputs": [],
      "name": "UUPSUnauthorizedCallContext",
      "type": "error"
    },
    {
      "inputs": [
        {
          "internalType": "bytes32",
          "name": "slot",
          "type": "bytes32"
        }
      ],
      "name": "UUPSUnsupportedProxiableUUID",
      "type": "error"
    },
    {
      "anonymous": false,
      "inputs": [
        {
          "indexed": false,
          "internalType": "uint256",
          "name": "by",
          "type": "uint256"
        }
      ],
      "name": "Increment",
      "type": "event"
    },
    {
      "anonymous": false,
      "inputs": [
        {
          "indexed": false,
          "internalType": "uint64",
          "name": "version",
          "type": "uint64"
        }
      ],
      "name": "Initialized",
      "type": "event"
    },
    {
      "anonymous": false,
      "inputs": [
        {
          "indexed": true,
          "internalType": "address",
          "name": "previousOwner",
          "type": "address"
        },
        {
          "indexed": true,
          "internalType": "address",
          "name": "newOwner",
          "type": "address"
        }
      ],
      "name": "OwnershipTransferred",
      "type": "event"
    },
    {
      "anonymous": false,
      "inputs": [
        {
          "indexed": true,
          "internalType": "address",
          "name": "implementation",
          "type": "address"
        }
      ],
      "name": "Upgraded",
      "type": "event"
    },
    {
      "inputs": [],
      "name": "UPGRADE_INTERFACE_VERSION",
      "outputs": [
        {
          "internalType": "string",
          "name": "",
          "type": "string"
        }
      ],
      "stateMutability": "view",
      "type": "function"
    },
    {
      "inputs": [],
      "name": "inc",
      "outputs": [],
      "stateMutability": "nonpayable",
      "type": "function"
    },
    {
      "inputs": [
        {
          "internalType": "uint256",
          "name": "by",
          "type": "uint256"
        }
      ],
      "name": "incBy",
      "outputs": [],
      "stateMutability": "nonpayable",
      "type": "function"
    },
    {
      "inputs": [],
      "name": "initialize",
      "outputs": [],
      "stateMutability": "nonpayable",
      "type": "function"
    },
    {
      "inputs": [],
      "name": "owner",
      "outputs": [
        {
          "internalType": "address",
          "name": "",
          "type": "address"
        }
      ],
      "stateMutability": "view",
      "type": "function"
    },
    {
      "inputs": [],
      "name": "proxiableUUID",
      "outputs": [
        {
          "internalType": "bytes32",
          "name": "",
          "type": "bytes32"
        }
      ],
      "stateMutability": "view",
      "type": "function"
    },
    {
      "inputs": [],
      "name": "renounceOwnership",
      "outputs": [],
      "stateMutability": "nonpayable",
      "type": "function"
    },
    {
      "inputs": [
        {
          "internalType": "address",
          "name": "newOwner",
          "type": "address"
        }
      ],
      "name": "transferOwnership",
      "outputs": [],
      "stateMutability": "nonpayable",
      "type": "function"
    },
    {
      "inputs": [
        {
          "internalType": "address",
          "name": "newImplementation",
          "type": "address"
        },
        {
          "internalType": "bytes",
          "name": "data",
          "type": "bytes"
        }
      ],
      "name": "upgradeToAndCall",
      "outputs": [],
      "stateMutability": "payable",
      "type": "function"
    },
    {
      "inputs": [],
      "name": "x",
      "outputs": [
        {
          "internalType": "uint256",
          "name": "",
          "type": "uint256"
        }
      ],
      "stateMutability": "view",
      "type": "function"
    }
  ],
  "bytecode": "0x60a060405230608052348015610013575f5ffd5b5061001c610021565b6100d3565b7ff0c57e16840df040f15088dc2f81fe391c3923bec73e23a9662efc9c229c6a00805468010000000000000000900460ff16156100715760405163f92ee8a960e01b815260040160405180910390fd5b80546001600160401b03908116146100d05780546001600160401b0319166001600160401b0390811782556040519081527fc7f505b2f371ae2175ee4913f4499e1f2633a7b5936321eed1cdaeb6115181d29060200160405180910390a15b50565b608051610b426100f95f395f81816104610152818161048a01526105ce0152610b425ff3fe60806040526004361061008f575f3560e01c8063715018a611610057578063715018a6146101165780638129fc1c1461012a5780638da5cb5b1461013e578063ad3cb1cc14610184578063f2fde38b146101c1575f5ffd5b80630c55699c14610093578063371303c0146100ba5780634f1ef286146100d057806352d1902d146100e357806370119d06146100f7575b5f5ffd5b34801561009e575f5ffd5b506100a75f5481565b6040519081526020015b60405180910390f35b3480156100c5575f5ffd5b506100ce6101e0565b005b6100ce6100de366004610957565b610229565b3480156100ee575f5ffd5b506100a7610248565b348015610102575f5ffd5b506100ce610111366004610a1b565b610263565b348015610121575f5ffd5b506100ce61030e565b348015610135575f5ffd5b506100ce610321565b348015610149575f5ffd5b507f9016d09d72d40fdae2fd8ceac6b6234c7706214fd39c1cd1e609a0528c199300546040516001600160a01b0390911681526020016100b1565b34801561018f575f5ffd5b506101b4604051806040016040528060058152602001640352e302e360dc1b81525081565b6040516100b19190610a32565b3480156101cc575f5ffd5b506100ce6101db366004610a67565b610419565b5f805490806101ee83610a94565b9091555050604051600181527f51af157c2eee40f68107a47a49c32fbbeb0a3c9e5cd37aa56e88e6be92368a819060200160405180910390a1565b610231610456565b61023a826104fa565b6102448282610502565b5050565b5f6102516105c3565b505f516020610aed5f395f51905f5290565b5f81116102c35760405162461bcd60e51b815260206004820152602360248201527f696e6342793a20696e6372656d656e742073686f756c6420626520706f73697460448201526269766560e81b60648201526084015b60405180910390fd5b805f5f8282546102d39190610aac565b90915550506040518181527f51af157c2eee40f68107a47a49c32fbbeb0a3c9e5cd37aa56e88e6be92368a819060200160405180910390a150565b61031661060c565b61031f5f610667565b565b5f61032a6106d7565b805490915060ff600160401b820416159067ffffffffffffffff165f811580156103515750825b90505f8267ffffffffffffffff16600114801561036d5750303b155b90508115801561037b575080155b156103995760405163f92ee8a960e01b815260040160405180910390fd5b845467ffffffffffffffff1916600117855583156103c357845460ff60401b1916600160401b1785555b6103cc33610701565b831561041257845460ff60401b19168555604051600181527fc7f505b2f371ae2175ee4913f4499e1f2633a7b5936321eed1cdaeb6115181d29060200160405180910390a15b5050505050565b61042161060c565b6001600160a01b03811661044a57604051631e4fbdf760e01b81525f60048201526024016102ba565b61045381610667565b50565b306001600160a01b037f00000000000000000000000000000000000000000000000000000000000000001614806104dc57507f00000000000000000000000000000000000000000000000000000000000000006001600160a01b03166104d05f516020610aed5f395f51905f52546001600160a01b031690565b6001600160a01b031614155b1561031f5760405163703e46dd60e11b815260040160405180910390fd5b61045361060c565b816001600160a01b03166352d1902d6040518163ffffffff1660e01b8152600401602060405180830381865afa92505050801561055c575060408051601f3d908101601f1916820190925261055991810190610abf565b60015b61058457604051634c9c8ce360e01b81526001600160a01b03831660048201526024016102ba565b5f516020610aed5f395f51905f5281146105b457604051632a87526960e21b8152600481018290526024016102ba565b6105be8383610712565b505050565b306001600160a01b037f0000000000000000000000000000000000000000000000000000000000000000161461031f5760405163703e46dd60e11b815260040160405180910390fd5b3361063e7f9016d09d72d40fdae2fd8ceac6b6234c7706214fd39c1cd1e609a0528c199300546001600160a01b031690565b6001600160a01b03161461031f5760405163118cdaa760e01b81523360048201526024016102ba565b7f9016d09d72d40fdae2fd8ceac6b6234c7706214fd39c1cd1e609a0528c19930080546001600160a01b031981166001600160a01b03848116918217845560405192169182907f8be0079c531659141344cd1fd0a4f28419497f9722a3daafe3b4186f6b6457e0905f90a3505050565b5f807ff0c57e16840df040f15088dc2f81fe391c3923bec73e23a9662efc9c229c6a005b92915050565b610709610767565b6104538161078c565b61071b82610794565b6040516001600160a01b038316907fbc7cd75a20ee27fd9adebab32041f755214dbc6bffa90cc0225b39da2e5c2d3b905f90a280511561075f576105be82826107f7565b610244610869565b61076f610888565b61031f57604051631afcd79f60e31b815260040160405180910390fd5b610421610767565b806001600160a01b03163b5f036107c957604051634c9c8ce360e01b81526001600160a01b03821660048201526024016102ba565b5f516020610aed5f395f51905f5280546001600160a01b0319166001600160a01b0392909216919091179055565b60605f5f846001600160a01b0316846040516108139190610ad6565b5f60405180830381855af49150503d805f811461084b576040519150601f19603f3d011682016040523d82523d5f602084013e610850565b606091505b50915091506108608583836108a1565b95945050505050565b341561031f5760405163b398979f60e01b815260040160405180910390fd5b5f6108916106d7565b54600160401b900460ff16919050565b6060826108b6576108b182610900565b6108f9565b81511580156108cd57506001600160a01b0384163b155b156108f657604051639996b31560e01b81526001600160a01b03851660048201526024016102ba565b50805b9392505050565b80511561090f57805160208201fd5b60405163d6bda27560e01b815260040160405180910390fd5b80356001600160a01b038116811461093e575f5ffd5b919050565b634e487b7160e01b5f52604160045260245ffd5b5f5f60408385031215610968575f5ffd5b61097183610928565b9150602083013567ffffffffffffffff81111561098c575f5ffd5b8301601f8101851361099c575f5ffd5b803567ffffffffffffffff8111156109b6576109b6610943565b604051601f8201601f19908116603f0116810167ffffffffffffffff811182821017156109e5576109e5610943565b6040528181528282016020018710156109fc575f5ffd5b816020840160208301375f602083830101528093505050509250929050565b5f60208284031215610a2b575f5ffd5b5035919050565b602081525f82518060208401528060208501604085015e5f604082850101526040601f19601f83011684010191505092915050565b5f60208284031215610a77575f5ffd5b6108f982610928565b634e487b7160e01b5f52601160045260245ffd5b5f60018201610aa557610aa5610a80565b5060010190565b808201808211156106fb576106fb610a80565b5f60208284031215610acf575f5ffd5b5051919050565b5f82518060208501845e5f92019182525091905056fe360894a13ba1a3210667c828492db98dca3e2076cc3735a920a3ca505d382bbca26469706673582212201ac5aa46dc5c55b56585dccf88b8c9912123e8ce6ee93b5d904088424d162eba64736f6c634300081c0033",
  "linkReferences": {},
  "deployedLinkReferences": {},
  "immutableReferences": {
    "482": [
      {
        "length": 32,
        "start": 1121
      },
      {
        "length": 32,
        "start": 1162
      },
      {
        "length": 32,
        "start": 1486
      }
    ]
  },
  "inputSourceName": "project/contracts/Counter.sol",
  "buildInfoId": "solc-0_8_28-c90203cef36ec8e881a43ebbbece16fe343bdf68"
}