{
  "_format": "hh3-artifact-1",
  "contractName": "CounterV2",
  "sourceName": "contracts/CounterV2.sol",
  "abi": [
    {
      "inputs": [],
      "stateMutability": "nonpayable",
      "type": "constructor"
    },
    {
      "inputs": [
        {
          "internalType": "address",
          "name": "target",
          "type": "address"
        }
      ],
      "name": "AddressEmptyCode",
      "type": "error"
    },
    {
      "inputs": [
        {
          "internalType": "address",
          "name": "implementation",
          "type": "address"
        }
      ],
      "name": "ERC1967InvalidImplementation",
      "type": "error"
    },
    {
      "inputs": [],
      "name": "ERC1967NonPayable",
      "type": "error"
    },
    {
      "inputs": [],
      "name": "FailedCall",
      "type": "error"
    },
    {
      "inputs": [],
      "name": "InvalidInitialization",
      "type": "error"
    },
    {
      "inputs": [],
      "name": "NotInitializing",
      "type": "error"
    },
    {
      "inputs": [
        {
          "internalType": "address",
          "name": "owner",
          "type": "address"
        }
      ],
      "name": "OwnableInvalidOwner",
      "type": "error"
    },
    {
      "inputs": [
        {
          "internalType": "address",
          "name": "account",
          "type": "address"
        }
      ],
      "name": "OwnableUnauthorizedAccount",
      "type": "error"
    },
    {
      "inputs": [],
      "name": "UUPSUnauthorizedCallContext",
      "type": "error"
    },
    {
      "inputs": [
        {
          "internalType": "bytes32",
          "name": "slot",
          "type": "bytes32"
        }
      ],
      "name": "UUPSUnsupportedProxiableUUID",
      "type": "error"
    },
    {
      "anonymous": false,
      "inputs": [
        {
          "indexed": false,
          "internalType": "uint256",
          "name": "by",
          "type": "uint256"
        }
      ],
      "name": "Increment",
      "type": "event"
    },
    {
      "anonymous": false,
      "inputs": [
        {
          "indexed": false,
          "internalType": "uint64",
          "name": "version",
          "type": "uint64"
        }
      ],
      "name": "Initialized",
      "type": "event"
    },
    {
      "anonymous": false,
      "inputs": [
        {
          "indexed": true,
          "internalType": "address",
          "name": "previousOwner",
          "type": "address"
        },
        {
          "indexed": true,
          "internalType": "address",
          "name": "newOwner",
          "type": "address"
        }
      ],
      "name": "OwnershipTransferred",
      "type": "event"
    },
    {
      "anonymous": false,
      "inputs": [
        {
          "indexed": true,
          "internalType": "address",
          "name": "implementation",
          "type": "address"
        }
      ],
      "name": "Upgraded",
      "type": "event"
    },
    {
      "inputs": [],
      "name": "UPGRADE_INTERFACE_VERSION",
      "outputs": [
        {
          "internalType": "string",
          "name": "",
          "type": "string"
        }
      ],
      "stateMutability": "view",
      "type": "function"
    },
    {
      "inputs": [],
      "name": "inc",
      "outputs": [],
      "stateMutability": "nonpayable",
      "type": "function"
    },
    {
      "inputs": [
        {
          "internalType": "uint256",
          "name": "by",
          "type": "uint256"
        }
      ],
      "name": "incBy",
      "outputs": [],
      "stateMutability": "nonpayable",
      "type": "function"
    },
    {
      "inputs": [],
      "name": "initialize",
      "outputs": [],
      "stateMutability": "nonpayable",
      "type": "function"
    },
    {
      "inputs": [
        {
          "internalType": "uint256",
          "name": "factor",
          "type": "uint256"
        }
      ],
      "name": "multiplyBy",
      "outputs": [],
      "stateMutability": "nonpayable",
      "type": "function"
    },
    {
      "inputs": [],
      "name": "owner",
      "outputs": [
        {
          "internalType": "address",
          "name": "",
          "type": "address"
        }
      ],
      "stateMutability": "view",
      "type": "function"
    },
    {
      "inputs": [],
      "name": "proxiableUUID",
      "outputs": [
        {
          "internalType": "bytes32",
          "name": "",
          "type": "bytes32"
        }
      ],
      "stateMutability": "view",
      "type": "function"
    },
    {
      "inputs": [],
      "name": "renounceOwnership",
      "outputs": [],
      "stateMutability": "nonpayable",
      "type": "function"
    },
    {
      "inputs": [
        {
          "internalType": "address",
          "name": "newOwner",
          "type": "address"
        }
      ],
      "name": "transferOwnership",
      "outputs": [],
      "stateMutability": "nonpayable",
      "type": "function"
    },
    {
      "inputs": [
        {
          "internalType": "address",
          "name": "newImplementation",
          "type": "address"
        },
        {
          "internalType": "bytes",
          "name": "data",
          "type": "bytes"
        }
      ],
      "name": "upgradeToAndCall",
      "outputs": [],
      "stateMutability": "payable",
      "type": "function"
    },
    {
      "inputs": [],
      "name": "x",
      "outputs": [
        {
          "internalType": "uint256",
          "name": "",
          "type": "uint256"
        }
      ],
      "stateMutability": "view",
      "type": "function"
    }
  ],
  "bytecode": "0x60a060405230608052348015610013575f5ffd5b5061001c610021565b6100d3565b7ff0c57e16840df040f15088dc2f81fe391c3923bec73e23a9662efc9c229c6a00805468010000000000000000900460ff16156100715760405163f92ee8a960e01b815260040160405180910390fd5b80546001600160401b03908116146100d05780546001600160401b0319166001600160401b0390811782556040519081527fc7f505b2f371ae2175ee4913f4499e1f2633a7b5936321eed1cdaeb6115181d29060200160405180910390a15b50565b608051610c286100f95f395f818161053001528181610559015261069d0152610c285ff3fe60806040526004361061009a575f3560e01c8063715018a611610062578063715018a6146101215780638129fc1c146101355780638da5cb5b14610149578063ad3cb1cc1461018f578063cea29937146101cc578063f2fde38b146101eb575f5ffd5b80630c55699c1461009e578063371303c0146100c55780634f1ef286146100db57806352d1902d146100ee57806370119d0614610102575b5f5ffd5b3480156100a9575f5ffd5b506100b25f5481565b6040519081526020015b60405180910390f35b3480156100d0575f5ffd5b506100d961020a565b005b6100d96100e9366004610a26565b610253565b3480156100f9575f5ffd5b506100b2610272565b34801561010d575f5ffd5b506100d961011c366004610aea565b61028d565b34801561012c575f5ffd5b506100d9610339565b348015610140575f5ffd5b506100d961034c565b348015610154575f5ffd5b507f9016d09d72d40fdae2fd8ceac6b6234c7706214fd39c1cd1e609a0528c199300546040516001600160a01b0390911681526020016100bc565b34801561019a575f5ffd5b506101bf604051806040016040528060058152602001640352e302e360dc1b81525081565b6040516100bc9190610b01565b3480156101d7575f5ffd5b506100d96101e6366004610aea565b610444565b3480156101f6575f5ffd5b506100d9610205366004610b36565b6104e8565b5f8054908061021883610b63565b9091555050604051600181527f51af157c2eee40f68107a47a49c32fbbeb0a3c9e5cd37aa56e88e6be92368a819060200160405180910390a1565b61025b610525565b610264826105c9565b61026e82826105d1565b5050565b5f61027b610692565b505f516020610bd35f395f51905f5290565b5f81116102ed5760405162461bcd60e51b815260206004820152602360248201527f696e6342793a20696e6372656d656e742073686f756c6420626520706f73697460448201526269766560e81b60648201526084015b60405180910390fd5b805f5f8282546102fd9190610b7b565b90915550506040518181527f51af157c2eee40f68107a47a49c32fbbeb0a3c9e5cd37aa56e88e6be92368a81906020015b60405180910390a150565b6103416106db565b61034a5f610736565b565b5f6103556107a6565b805490915060ff600160401b820416159067ffffffffffffffff165f8115801561037c5750825b90505f8267ffffffffffffffff1660011480156103985750303b155b9050811580156103a6575080155b156103c45760405163f92ee8a960e01b815260040160405180910390fd5b845467ffffffffffffffff1916600117855583156103ee57845460ff60401b1916600160401b1785555b6103f7336107d0565b831561043d57845460ff60401b19168555604051600181527fc7f505b2f371ae2175ee4913f4499e1f2633a7b5936321eed1cdaeb6115181d29060200160405180910390a15b5050505050565b5f81116104a15760405162461bcd60e51b815260206004820152602560248201527f6d756c7469706c7942793a20666163746f722073686f756c6420626520706f73604482015264697469766560d81b60648201526084016102e4565b805f5f8282546104b19190610b8e565b90915550505f546040519081527f51af157c2eee40f68107a47a49c32fbbeb0a3c9e5cd37aa56e88e6be92368a819060200161032e565b6104f06106db565b6001600160a01b03811661051957604051631e4fbdf760e01b81525f60048201526024016102e4565b61052281610736565b50565b306001600160a01b037f00000000000000000000000000000000000000000000000000000000000000001614806105ab57507f00000000000000000000000000000000000000000000000000000000000000006001600160a01b031661059f5f516020610bd35f395f51905f52546001600160a01b031690565b6001600160a01b031614155b1561034a5760405163703e46dd60e11b815260040160405180910390fd5b6105226106db565b816001600160a01b03166352d1902d6040518163ffffffff1660e01b8152600401602060405180830381865afa92505050801561062b575060408051601f3d908101601f1916820190925261062891810190610ba5565b60015b61065357604051634c9c8ce360e01b81526001600160a01b03831660048201526024016102e4565b5f516020610bd35f395f51905f52811461068357604051632a87526960e21b8152600481018290526024016102e4565b61068d83836107e1565b505050565b306001600160a01b037f0000000000000000000000000000000000000000000000000000000000000000161461034a5760405163703e46dd60e11b815260040160405180910390fd5b3361070d7f9016d09d72d40fdae2fd8ceac6b6234c7706214fd39c1cd1e609a0528c199300546001600160a01b031690565b6001600160a01b03161461034a5760405163118cdaa760e01b81523360048201526024016102e4565b7f9016d09d72d40fdae2fd8ceac6b6234c7706214fd39c1cd1e609a0528c19930080546001600160a01b031981166001600160a01b03848116918217845560405192169182907f8be0079c531659141344cd1fd0a4f28419497f9722a3daafe3b4186f6b6457e0905f90a3505050565b5f807ff0c57e16840df040f15088dc2f81fe391c3923bec73e23a9662efc9c229c6a005b92915050565b6107d8610836565b6105228161085b565b6107ea82610863565b6040516001600160a01b038316907fbc7cd75a20ee27fd9adebab32041f755214dbc6bffa90cc0225b39da2e5c2d3b905f90a280511561082e5761068d82826108c6565b61026e610938565b61083e610957565b61034a57604051631afcd79f60e31b815260040160405180910390fd5b6104f0610836565b806001600160a01b03163b5f0361089857604051634c9c8ce360e01b81526001600160a01b03821660048201526024016102e4565b5f516020610bd35f395f51905f5280546001600160a01b0319166001600160a01b0392909216919091179055565b60605f5f846001600160a01b0316846040516108e29190610bbc565b5f60405180830381855af49150503d805f811461091a576040519150601f19603f3d011682016040523d82523d5f602084013e61091f565b606091505b509150915061092f858383610970565b95945050505050565b341561034a5760405163b398979f60e01b815260040160405180910390fd5b5f6109606107a6565b54600160401b900460ff16919050565b60608261098557610980826109cf565b6109c8565b815115801561099c57506001600160a01b0384163b155b156109c557604051639996b31560e01b81526001600160a01b03851660048201526024016102e4565b50805b9392505050565b8051156109de57805160208201fd5b60405163d6bda27560e01b815260040160405180910390fd5b80356001600160a01b0381168114610a0d575f5ffd5b919050565b634e487b7160e01b5f52604160045260245ffd5b5f5f60408385031215610a37575f5ffd5b610a40836109f7565b9150602083013567ffffffffffffffff811115610a5b575f5ffd5b8301601f81018513610a6b575f5ffd5b803567ffffffffffffffff811115610a8557610a85610a12565b604051601f8201601f19908116603f0116810167ffffffffffffffff81118282101715610ab457610ab4610a12565b604052818152828201602001871015610acb575f5ffd5b816020840160208301375f602083830101528093505050509250929050565b5f60208284031215610afa575f5ffd5b5035919050565b602081525f82518060208401528060208501604085015e5f604082850101526040601f19601f83011684010191505092915050565b5f60208284031215610b46575f5ffd5b6109c8826109f7565b634e487b7160e01b5f52601160045260245ffd5b5f60018201610b7457610b74610b4f565b5060010190565b808201808211156107ca576107ca610b4f565b80820281158282048414176107ca576107ca610b4f565b5f60208284031215610bb5575f5ffd5b5051919050565b5f82518060208501845e5f92019182525091905056fe360894a13ba1a3210667c828492db98dca3e2076cc3735a920a3ca505d382bbca26469706673582212208335cbcb4d93fe7898ce0dc83c19364258eb12f7b81c939eeb21d19ccbb878eb64736f6c634300081c0033",
  "linkReferences": {},
  "deployedLinkReferences": {},
  "immutableReferences": {
    "482": [
      {
        "length": 32,
        "start": 1328
      },
      {
        "length": 32,
        "start": 1369
      },
      {
        "length": 32,
        "start": 1693
      }
    ]
  },
  "inputSourceName": "project/contracts/CounterV2.sol",
  "buildInfoId": "solc-0_8_28-a77660924b7ffa0f3aaefc4218496ed554256368"
}